{
  "contractName": "GeneralElection",
  "abi": [
    {
      "inputs": [],
      "stateMutability": "nonpayable",
      "type": "constructor"
    },
    {
      "anonymous": false,
      "inputs": [
        {
          "indexed": false,
          "internalType": "address",
          "name": "who",
          "type": "address"
        },
        {
          "indexed": false,
          "internalType": "string",
          "name": "message",
          "type": "string"
        }
      ],
      "name": "Voted",
      "type": "event"
    },
    {
      "inputs": [],
      "name": "owner",
      "outputs": [
        {
          "internalType": "address",
          "name": "",
          "type": "address"
        }
      ],
      "stateMutability": "view",
      "type": "function"
    },
    {
      "inputs": [],
      "name": "getTotalVoteCast",
      "outputs": [
        {
          "internalType": "uint256",
          "name": "",
          "type": "uint256"
        }
      ],
      "stateMutability": "view",
      "type": "function"
    },
    {
      "inputs": [
        {
          "internalType": "string",
          "name": "_party",
          "type": "string"
        }
      ],
      "name": "getPartyVotes",
      "outputs": [
        {
          "internalType": "uint256",
          "name": "",
          "type": "uint256"
        }
      ],
      "stateMutability": "view",
      "type": "function"
    },
    {
      "inputs": [
        {
          "internalType": "string",
          "name": "_party",
          "type": "string"
        }
      ],
      "name": "voteForParty",
      "outputs": [],
      "stateMutability": "nonpayable",
      "type": "function"
    }
  ],
  "bytecode": "0x60806040526000600560006101000a81548160ff02191690831515021790555034801561002b57600080fd5b5060405180606001604052803373ffffffffffffffffffffffffffffffffffffffff1681526020016000815260200160001515815250600660008201518160000160006101000a81548173ffffffffffffffffffffffffffffffffffffffff021916908373ffffffffffffffffffffffffffffffffffffffff1602179055506020820151816001015560408201518160020160006101000a81548160ff021916908315150217905550905050604051806020016040528060008152506009600082015181600001559050506107a2806101056000396000f3fe608060405234801561001057600080fd5b506004361061004c5760003560e01c8063030d2243146100515780634530fa83146100815780638da5cb5b1461009f578063c2b40653146100bd575b600080fd5b61006b60048036038101906100669190610460565b6100d9565b60405161007891906104c2565b60405180910390f35b610089610101565b60405161009691906104c2565b60405180910390f35b6100a761010e565b6040516100b4919061051e565b60405180910390f35b6100d760048036038101906100d29190610460565b610134565b005b60006004826040516100eb91906105b3565b9081526020016040518091039020549050919050565b6000600960000154905090565b600360009054906101000a900473ffffffffffffffffffffffffffffffffffffffff1681565b600060020160009054906101000a900460ff161580156101a357503373ffffffffffffffffffffffffffffffffffffffff166000800160009054906101000a900473ffffffffffffffffffffffffffffffffffffffff1673ffffffffffffffffffffffffffffffffffffffff16145b80156101b3575060008060010154145b6101bc57600080fd5b600560009054906101000a900460ff166102c85760016006600101819055506001600660020160006101000a81548160ff021916908315150217905550600160048260405161020b91906105b3565b9081526020016040518091039020600082825461022891906105f9565b925050819055506001600560006101000a81548160ff02191690831515021790555060016009600001600082825461026091906105f9565b925050819055507fcb6783276e8a4347387036bbfea000268f0a4b1f8c46ac79980609f2af8d2acd600660000160009054906101000a900473ffffffffffffffffffffffffffffffffffffffff166040516102bb91906106d2565b60405180910390a1610303565b6040517f08c379a00000000000000000000000000000000000000000000000000000000081526004016102fa9061074c565b60405180910390fd5b50565b6000604051905090565b600080fd5b600080fd5b600080fd5b600080fd5b6000601f19601f8301169050919050565b7f4e487b7100000000000000000000000000000000000000000000000000000000600052604160045260246000fd5b61036d82610324565b810181811067ffffffffffffffff8211171561038c5761038b610335565b5b80604052505050565b600061039f610306565b90506103ab8282610364565b919050565b600067ffffffffffffffff8211156103cb576103ca610335565b5b6103d482610324565b9050602081019050919050565b82818337600083830152505050565b60006104036103fe846103b0565b610395565b90508281526020810184848401111561041f5761041e61031f565b5b61042a8482856103e1565b509392505050565b600082601f8301126104475761044661031a565b5b81356104578482602086016103f0565b91505092915050565b60006020828403121561047657610475610310565b5b600082013567ffffffffffffffff81111561049457610493610315565b5b6104a084828501610432565b91505092915050565b6000819050919050565b6104bc816104a9565b82525050565b60006020820190506104d760008301846104b3565b92915050565b600073ffffffffffffffffffffffffffffffffffffffff82169050919050565b6000610508826104dd565b9050919050565b610518816104fd565b82525050565b6000602082019050610533600083018461050f565b92915050565b600081519050919050565b600081905092915050565b60005b8381101561056d578082015181840152602081019050610552565b8381111561057c576000848401525b50505050565b600061058d82610539565b6105978185610544565b93506105a781856020860161054f565b80840191505092915050565b60006105bf8284610582565b915081905092915050565b7f4e487b7100000000000000000000000000000000000000000000000000000000600052601160045260246000fd5b6000610604826104a9565b915061060f836104a9565b9250827fffffffffffffffffffffffffffffffffffffffffffffffffffffffffffffffff03821115610644576106436105ca565b5b828201905092915050565b600082825260208201905092915050565b7f5468616e6b20796f752c20766f7465207265636f72646564207375636365737360008201527f66756c7900000000000000000000000000000000000000000000000000000000602082015250565b60006106bc60248361064f565b91506106c782610660565b604082019050919050565b60006040820190506106e7600083018461050f565b81810360208301526106f8816106af565b905092915050565b7f596f75206861766520616c726561647920766f74656400000000000000000000600082015250565b600061073660168361064f565b915061074182610700565b602082019050919050565b6000602082019050818103600083015261076581610729565b905091905056fea2646970667358221220b7b3f3d610427ad607d83874228cd43ddc32aa0d53ad2c7969d74a531fc84faa64736f6c634300080b0033",
  "immutableReferences": {},
  "source": "pragma solidity >=0.4.22 <0.9.0;\nimport \"./electoral_commission.sol\";\n\n// SPDX-License-Identifier: GPL-3.0\n\ncontract GeneralElection is EC {\n    address public owner;\n\n    // map all parties to corresponding votes\n    mapping(string => uint256) private partyVotes;\n\n    // hasAlreadyVotedError will be thrown when user tries to vote again\n    // error HasAlreadyVoted(address who, string message);\n\n    //error HasAlreadyVotedError (string message);\n    bool private triggerVoteCountError = false;\n\n    // will be emitted when an address(voter) votes\n    event Voted(address who, string message);\n\n    Voter private voter;\n    BallotBox private ballotBox;\n\n    // ensure the address calling/transacting this smart contract is the voter\n    // set vote and hasVoted as seen below\n    constructor() {\n        voter = Voter({voterId: msg.sender, vote: 0, hasVoted: false});\n        // hard coded parties for testing\n\n        ballotBox = BallotBox({voteCount: 0});\n    }\n\n    // read total votes in election\n    function getTotalVoteCast() public view virtual override returns (uint256) {\n        return ballotBox.voteCount;\n    }\n\n    // read total votes of a party\n    function getPartyVotes(string memory _party)\n        public\n        view\n        virtual\n        override\n        returns (uint256)\n    {\n        return partyVotes[_party];\n    }\n\n    // all verified voters can vote\n    function voteForParty(string memory _party)\n        external\n        virtual\n        override\n        verifyVoter\n    {\n        if (!triggerVoteCountError) {\n            // update the voter info\n            voter.vote = 1;\n            voter.hasVoted = true;\n\n            //increase the party total votes by one\n            partyVotes[_party] += 1;\n\n            // set voteCountError to true to be able to revert network if voter tries to vote again\n            triggerVoteCountError = true;\n\n            // increase the votes in the ballotBox\n            ballotBox.voteCount += 1;\n\n            emit Voted({\n                who: voter.voterId,\n                message: \"Thank you, vote recorded successfuly\"\n            });\n        } else {\n            revert(\"You have already voted\");\n        }\n    }\n}\n",
  "sourcePath": "/home/emmanuel/GitProjects/voting-dapp-1/contracts/general_election.sol",
  "compiler": {
    "name": "solc",
    "version": "0.8.11+commit.d7f03943.Emscripten.clang"
  },
  "schemaVersion": "3.4.4",
  "updatedAt": "2022-02-15T12:00:29.521Z",
  "devdoc": {
    "kind": "dev",
    "methods": {},
    "version": 1
  },
  "userdoc": {
    "kind": "user",
    "methods": {},
    "version": 1
  }
}